{
  "_format": "hh-sol-artifact-1",
  "contractName": "PowerOracle",
  "sourceName": "contracts/PowerOracle.sol",
  "abi": [
    {
      "inputs": [
        {
          "internalType": "address",
          "name": "cvpToken_",
          "type": "address"
        },
        {
          "internalType": "uint256",
          "name": "anchorPeriod_",
          "type": "uint256"
        },
        {
          "components": [
            {
              "internalType": "address",
              "name": "cToken",
              "type": "address"
            },
            {
              "internalType": "address",
              "name": "underlying",
              "type": "address"
            },
            {
              "internalType": "bytes32",
              "name": "symbolHash",
              "type": "bytes32"
            },
            {
              "internalType": "uint256",
              "name": "baseUnit",
              "type": "uint256"
            },
            {
              "internalType": "enum UniswapConfig.PriceSource",
              "name": "priceSource",
              "type": "uint8"
            },
            {
              "internalType": "uint256",
              "name": "fixedPrice",
              "type": "uint256"
            },
            {
              "internalType": "address",
              "name": "uniswapMarket",
              "type": "address"
            },
            {
              "internalType": "bool",
              "name": "isUniswapReversed",
              "type": "bool"
            }
          ],
          "internalType": "struct UniswapConfig.TokenConfig[]",
          "name": "configs",
          "type": "tuple[]"
        }
      ],
      "stateMutability": "nonpayable",
      "type": "constructor"
    },
    {
      "anonymous": false,
      "inputs": [
        {
          "indexed": false,
          "internalType": "string",
          "name": "symbol",
          "type": "string"
        },
        {
          "indexed": true,
          "internalType": "bytes32",
          "name": "symbolHash",
          "type": "bytes32"
        },
        {
          "indexed": false,
          "internalType": "uint256",
          "name": "anchorPrice",
          "type": "uint256"
        },
        {
          "indexed": false,
          "internalType": "uint256",
          "name": "oldTimestamp",
          "type": "uint256"
        },
        {
          "indexed": false,
          "internalType": "uint256",
          "name": "newTimestamp",
          "type": "uint256"
        }
      ],
      "name": "AnchorPriceUpdated",
      "type": "event"
    },
    {
      "anonymous": false,
      "inputs": [
        {
          "indexed": true,
          "internalType": "address",
          "name": "previousOwner",
          "type": "address"
        },
        {
          "indexed": true,
          "internalType": "address",
          "name": "newOwner",
          "type": "address"
        }
      ],
      "name": "OwnershipTransferred",
      "type": "event"
    },
    {
      "anonymous": false,
      "inputs": [
        {
          "indexed": false,
          "internalType": "address",
          "name": "account",
          "type": "address"
        }
      ],
      "name": "Paused",
      "type": "event"
    },
    {
      "anonymous": false,
      "inputs": [
        {
          "indexed": true,
          "internalType": "address",
          "name": "poker",
          "type": "address"
        },
        {
          "indexed": false,
          "internalType": "uint256",
          "name": "tokenCount",
          "type": "uint256"
        }
      ],
      "name": "Poke",
      "type": "event"
    },
    {
      "anonymous": false,
      "inputs": [
        {
          "indexed": true,
          "internalType": "uint256",
          "name": "reporterId",
          "type": "uint256"
        },
        {
          "indexed": false,
          "internalType": "uint256",
          "name": "tokenCount",
          "type": "uint256"
        },
        {
          "indexed": false,
          "internalType": "uint256",
          "name": "rewardCount",
          "type": "uint256"
        }
      ],
      "name": "PokeFromReporter",
      "type": "event"
    },
    {
      "anonymous": false,
      "inputs": [
        {
          "indexed": true,
          "internalType": "uint256",
          "name": "slasherId",
          "type": "uint256"
        },
        {
          "indexed": false,
          "internalType": "uint256",
          "name": "tokenCount",
          "type": "uint256"
        },
        {
          "indexed": false,
          "internalType": "uint256",
          "name": "overdueCount",
          "type": "uint256"
        }
      ],
      "name": "PokeFromSlasher",
      "type": "event"
    },
    {
      "anonymous": false,
      "inputs": [
        {
          "indexed": false,
          "internalType": "address",
          "name": "powerPoke",
          "type": "address"
        }
      ],
      "name": "SetPowerPoke",
      "type": "event"
    },
    {
      "anonymous": false,
      "inputs": [
        {
          "indexed": true,
          "internalType": "uint256",
          "name": "slasherId",
          "type": "uint256"
        },
        {
          "indexed": false,
          "internalType": "uint256",
          "name": "prevSlasherTimestamp",
          "type": "uint256"
        },
        {
          "indexed": false,
          "internalType": "uint256",
          "name": "newSlasherTimestamp",
          "type": "uint256"
        }
      ],
      "name": "SlasherHeartbeat",
      "type": "event"
    },
    {
      "anonymous": false,
      "inputs": [
        {
          "indexed": true,
          "internalType": "bytes32",
          "name": "symbolHash",
          "type": "bytes32"
        },
        {
          "indexed": false,
          "internalType": "uint256",
          "name": "oldTimestamp",
          "type": "uint256"
        },
        {
          "indexed": false,
          "internalType": "uint256",
          "name": "newTimestamp",
          "type": "uint256"
        },
        {
          "indexed": false,
          "internalType": "uint256",
          "name": "oldPrice",
          "type": "uint256"
        },
        {
          "indexed": false,
          "internalType": "uint256",
          "name": "newPrice",
          "type": "uint256"
        }
      ],
      "name": "UniswapWindowUpdated",
      "type": "event"
    },
    {
      "anonymous": false,
      "inputs": [
        {
          "indexed": false,
          "internalType": "address",
          "name": "account",
          "type": "address"
        }
      ],
      "name": "Unpaused",
      "type": "event"
    },
    {
      "inputs": [],
      "name": "CVP_TOKEN",
      "outputs": [
        {
          "internalType": "contract IERC20",
          "name": "",
          "type": "address"
        }
      ],
      "stateMutability": "view",
      "type": "function"
    },
    {
      "inputs": [],
      "name": "HUNDRED_PCT",
      "outputs": [
        {
          "internalType": "uint256",
          "name": "",
          "type": "uint256"
        }
      ],
      "stateMutability": "view",
      "type": "function"
    },
    {
      "inputs": [],
      "name": "anchorPeriod",
      "outputs": [
        {
          "internalType": "uint256",
          "name": "",
          "type": "uint256"
        }
      ],
      "stateMutability": "view",
      "type": "function"
    },
    {
      "inputs": [
        {
          "internalType": "address",
          "name": "token_",
          "type": "address"
        }
      ],
      "name": "assetPrices",
      "outputs": [
        {
          "internalType": "uint256",
          "name": "",
          "type": "uint256"
        }
      ],
      "stateMutability": "view",
      "type": "function"
    },
    {
      "inputs": [],
      "name": "ethBaseUnit",
      "outputs": [
        {
          "internalType": "uint256",
          "name": "",
          "type": "uint256"
        }
      ],
      "stateMutability": "view",
      "type": "function"
    },
    {
      "inputs": [],
      "name": "expScale",
      "outputs": [
        {
          "internalType": "uint256",
          "name": "",
          "type": "uint256"
        }
      ],
      "stateMutability": "view",
      "type": "function"
    },
    {
      "inputs": [
        {
          "internalType": "bytes32",
          "name": "_symbolHash",
          "type": "bytes32"
        }
      ],
      "name": "getIntervalStatus",
      "outputs": [
        {
          "internalType": "enum IPowerOracle.ReportInterval",
          "name": "",
          "type": "uint8"
        }
      ],
      "stateMutability": "view",
      "type": "function"
    },
    {
      "inputs": [
        {
          "internalType": "bytes32",
          "name": "symbolHash_",
          "type": "bytes32"
        },
        {
          "internalType": "uint256",
          "name": "minReportInterval_",
          "type": "uint256"
        },
        {
          "internalType": "uint256",
          "name": "maxReportInterval_",
          "type": "uint256"
        }
      ],
      "name": "getIntervalStatusForIntervals",
      "outputs": [
        {
          "internalType": "enum IPowerOracle.ReportInterval",
          "name": "",
          "type": "uint8"
        }
      ],
      "stateMutability": "view",
      "type": "function"
    },
    {
      "inputs": [
        {
          "internalType": "address",
          "name": "token_",
          "type": "address"
        }
      ],
      "name": "getPriceByAsset",
      "outputs": [
        {
          "internalType": "uint256",
          "name": "",
          "type": "uint256"
        }
      ],
      "stateMutability": "view",
      "type": "function"
    },
    {
      "inputs": [
        {
          "internalType": "string",
          "name": "symbol_",
          "type": "string"
        }
      ],
      "name": "getPriceBySymbol",
      "outputs": [
        {
          "internalType": "uint256",
          "name": "",
          "type": "uint256"
        }
      ],
      "stateMutability": "view",
      "type": "function"
    },
    {
      "inputs": [
        {
          "internalType": "bytes32",
          "name": "symbolHash_",
          "type": "bytes32"
        }
      ],
      "name": "getPriceBySymbolHash",
      "outputs": [
        {
          "internalType": "uint256",
          "name": "",
          "type": "uint256"
        }
      ],
      "stateMutability": "view",
      "type": "function"
    },
    {
      "inputs": [
        {
          "internalType": "uint256",
          "name": "i",
          "type": "uint256"
        }
      ],
      "name": "getTokenConfig",
      "outputs": [
        {
          "components": [
            {
              "internalType": "address",
              "name": "cToken",
              "type": "address"
            },
            {
              "internalType": "address",
              "name": "underlying",
              "type": "address"
            },
            {
              "internalType": "bytes32",
              "name": "symbolHash",
              "type": "bytes32"
            },
            {
              "internalType": "uint256",
              "name": "baseUnit",
              "type": "uint256"
            },
            {
              "internalType": "enum UniswapConfig.PriceSource",
              "name": "priceSource",
              "type": "uint8"
            },
            {
              "internalType": "uint256",
              "name": "fixedPrice",
              "type": "uint256"
            },
            {
              "internalType": "address",
              "name": "uniswapMarket",
              "type": "address"
            },
            {
              "internalType": "bool",
              "name": "isUniswapReversed",
              "type": "bool"
            }
          ],
          "internalType": "struct UniswapConfig.TokenConfig",
          "name": "",
          "type": "tuple"
        }
      ],
      "stateMutability": "view",
      "type": "function"
    },
    {
      "inputs": [
        {
          "internalType": "address",
          "name": "cToken",
          "type": "address"
        }
      ],
      "name": "getTokenConfigByCToken",
      "outputs": [
        {
          "components": [
            {
              "internalType": "address",
              "name": "cToken",
              "type": "address"
            },
            {
              "internalType": "address",
              "name": "underlying",
              "type": "address"
            },
            {
              "internalType": "bytes32",
              "name": "symbolHash",
              "type": "bytes32"
            },
            {
              "internalType": "uint256",
              "name": "baseUnit",
              "type": "uint256"
            },
            {
              "internalType": "enum UniswapConfig.PriceSource",
              "name": "priceSource",
              "type": "uint8"
            },
            {
              "internalType": "uint256",
              "name": "fixedPrice",
              "type": "uint256"
            },
            {
              "internalType": "address",
              "name": "uniswapMarket",
              "type": "address"
            },
            {
              "internalType": "bool",
              "name": "isUniswapReversed",
              "type": "bool"
            }
          ],
          "internalType": "struct UniswapConfig.TokenConfig",
          "name": "",
          "type": "tuple"
        }
      ],
      "stateMutability": "view",
      "type": "function"
    },
    {
      "inputs": [
        {
          "internalType": "string",
          "name": "symbol",
          "type": "string"
        }
      ],
      "name": "getTokenConfigBySymbol",
      "outputs": [
        {
          "components": [
            {
              "internalType": "address",
              "name": "cToken",
              "type": "address"
            },
            {
              "internalType": "address",
              "name": "underlying",
              "type": "address"
            },
            {
              "internalType": "bytes32",
              "name": "symbolHash",
              "type": "bytes32"
            },
            {
              "internalType": "uint256",
              "name": "baseUnit",
              "type": "uint256"
            },
            {
              "internalType": "enum UniswapConfig.PriceSource",
              "name": "priceSource",
              "type": "uint8"
            },
            {
              "internalType": "uint256",
              "name": "fixedPrice",
              "type": "uint256"
            },
            {
              "internalType": "address",
              "name": "uniswapMarket",
              "type": "address"
            },
            {
              "internalType": "bool",
              "name": "isUniswapReversed",
              "type": "bool"
            }
          ],
          "internalType": "struct UniswapConfig.TokenConfig",
          "name": "",
          "type": "tuple"
        }
      ],
      "stateMutability": "view",
      "type": "function"
    },
    {
      "inputs": [
        {
          "internalType": "bytes32",
          "name": "symbolHash",
          "type": "bytes32"
        }
      ],
      "name": "getTokenConfigBySymbolHash",
      "outputs": [
        {
          "components": [
            {
              "internalType": "address",
              "name": "cToken",
              "type": "address"
            },
            {
              "internalType": "address",
              "name": "underlying",
              "type": "address"
            },
            {
              "internalType": "bytes32",
              "name": "symbolHash",
              "type": "bytes32"
            },
            {
              "internalType": "uint256",
              "name": "baseUnit",
              "type": "uint256"
            },
            {
              "internalType": "enum UniswapConfig.PriceSource",
              "name": "priceSource",
              "type": "uint8"
            },
            {
              "internalType": "uint256",
              "name": "fixedPrice",
              "type": "uint256"
            },
            {
              "internalType": "address",
              "name": "uniswapMarket",
              "type": "address"
            },
            {
              "internalType": "bool",
              "name": "isUniswapReversed",
              "type": "bool"
            }
          ],
          "internalType": "struct UniswapConfig.TokenConfig",
          "name": "",
          "type": "tuple"
        }
      ],
      "stateMutability": "view",
      "type": "function"
    },
    {
      "inputs": [
        {
          "internalType": "address",
          "name": "underlying",
          "type": "address"
        }
      ],
      "name": "getTokenConfigByUnderlying",
      "outputs": [
        {
          "components": [
            {
              "internalType": "address",
              "name": "cToken",
              "type": "address"
            },
            {
              "internalType": "address",
              "name": "underlying",
              "type": "address"
            },
            {
              "internalType": "bytes32",
              "name": "symbolHash",
              "type": "bytes32"
            },
            {
              "internalType": "uint256",
              "name": "baseUnit",
              "type": "uint256"
            },
            {
              "internalType": "enum UniswapConfig.PriceSource",
              "name": "priceSource",
              "type": "uint8"
            },
            {
              "internalType": "uint256",
              "name": "fixedPrice",
              "type": "uint256"
            },
            {
              "internalType": "address",
              "name": "uniswapMarket",
              "type": "address"
            },
            {
              "internalType": "bool",
              "name": "isUniswapReversed",
              "type": "bool"
            }
          ],
          "internalType": "struct UniswapConfig.TokenConfig",
          "name": "",
          "type": "tuple"
        }
      ],
      "stateMutability": "view",
      "type": "function"
    },
    {
      "inputs": [
        {
          "internalType": "address",
          "name": "cToken_",
          "type": "address"
        }
      ],
      "name": "getUnderlyingPrice",
      "outputs": [
        {
          "internalType": "uint256",
          "name": "",
          "type": "uint256"
        }
      ],
      "stateMutability": "view",
      "type": "function"
    },
    {
      "inputs": [
        {
          "internalType": "address",
          "name": "owner_",
          "type": "address"
        },
        {
          "internalType": "address",
          "name": "powerPoke_",
          "type": "address"
        }
      ],
      "name": "initialize",
      "outputs": [],
      "stateMutability": "nonpayable",
      "type": "function"
    },
    {
      "inputs": [
        {
          "internalType": "uint256",
          "name": "",
          "type": "uint256"
        }
      ],
      "name": "lastSlasherUpdates",
      "outputs": [
        {
          "internalType": "uint256",
          "name": "",
          "type": "uint256"
        }
      ],
      "stateMutability": "view",
      "type": "function"
    },
    {
      "inputs": [],
      "name": "maxTokens",
      "outputs": [
        {
          "internalType": "uint256",
          "name": "",
          "type": "uint256"
        }
      ],
      "stateMutability": "view",
      "type": "function"
    },
    {
      "inputs": [
        {
          "internalType": "bytes32",
          "name": "",
          "type": "bytes32"
        }
      ],
      "name": "newObservations",
      "outputs": [
        {
          "internalType": "uint256",
          "name": "timestamp",
          "type": "uint256"
        },
        {
          "internalType": "uint256",
          "name": "acc",
          "type": "uint256"
        }
      ],
      "stateMutability": "view",
      "type": "function"
    },
    {
      "inputs": [],
      "name": "numTokens",
      "outputs": [
        {
          "internalType": "uint256",
          "name": "",
          "type": "uint256"
        }
      ],
      "stateMutability": "view",
      "type": "function"
    },
    {
      "inputs": [
        {
          "internalType": "bytes32",
          "name": "",
          "type": "bytes32"
        }
      ],
      "name": "oldObservations",
      "outputs": [
        {
          "internalType": "uint256",
          "name": "timestamp",
          "type": "uint256"
        },
        {
          "internalType": "uint256",
          "name": "acc",
          "type": "uint256"
        }
      ],
      "stateMutability": "view",
      "type": "function"
    },
    {
      "inputs": [],
      "name": "owner",
      "outputs": [
        {
          "internalType": "address",
          "name": "",
          "type": "address"
        }
      ],
      "stateMutability": "view",
      "type": "function"
    },
    {
      "inputs": [],
      "name": "pause",
      "outputs": [],
      "stateMutability": "nonpayable",
      "type": "function"
    },
    {
      "inputs": [],
      "name": "paused",
      "outputs": [
        {
          "internalType": "bool",
          "name": "",
          "type": "bool"
        }
      ],
      "stateMutability": "view",
      "type": "function"
    },
    {
      "inputs": [
        {
          "internalType": "string[]",
          "name": "symbols_",
          "type": "string[]"
        }
      ],
      "name": "poke",
      "outputs": [],
      "stateMutability": "nonpayable",
      "type": "function"
    },
    {
      "inputs": [
        {
          "internalType": "uint256",
          "name": "reporterId_",
          "type": "uint256"
        },
        {
          "internalType": "string[]",
          "name": "symbols_",
          "type": "string[]"
        },
        {
          "internalType": "bytes",
          "name": "rewardOpts",
          "type": "bytes"
        }
      ],
      "name": "pokeFromReporter",
      "outputs": [],
      "stateMutability": "nonpayable",
      "type": "function"
    },
    {
      "inputs": [
        {
          "internalType": "uint256",
          "name": "slasherId_",
          "type": "uint256"
        },
        {
          "internalType": "string[]",
          "name": "symbols_",
          "type": "string[]"
        },
        {
          "internalType": "bytes",
          "name": "rewardOpts",
          "type": "bytes"
        }
      ],
      "name": "pokeFromSlasher",
      "outputs": [],
      "stateMutability": "nonpayable",
      "type": "function"
    },
    {
      "inputs": [],
      "name": "powerPoke",
      "outputs": [
        {
          "internalType": "contract IPowerPoke",
          "name": "",
          "type": "address"
        }
      ],
      "stateMutability": "view",
      "type": "function"
    },
    {
      "inputs": [
        {
          "internalType": "bytes32",
          "name": "",
          "type": "bytes32"
        }
      ],
      "name": "prices",
      "outputs": [
        {
          "internalType": "uint128",
          "name": "timestamp",
          "type": "uint128"
        },
        {
          "internalType": "uint128",
          "name": "value",
          "type": "uint128"
        }
      ],
      "stateMutability": "view",
      "type": "function"
    },
    {
      "inputs": [],
      "name": "renounceOwnership",
      "outputs": [],
      "stateMutability": "nonpayable",
      "type": "function"
    },
    {
      "inputs": [
        {
          "internalType": "address",
          "name": "powerPoke_",
          "type": "address"
        }
      ],
      "name": "setPowerPoke",
      "outputs": [],
      "stateMutability": "nonpayable",
      "type": "function"
    },
    {
      "inputs": [
        {
          "internalType": "uint256",
          "name": "slasherId_",
          "type": "uint256"
        }
      ],
      "name": "slasherHeartbeat",
      "outputs": [],
      "stateMutability": "nonpayable",
      "type": "function"
    },
    {
      "inputs": [
        {
          "internalType": "address",
          "name": "newOwner",
          "type": "address"
        }
      ],
      "name": "transferOwnership",
      "outputs": [],
      "stateMutability": "nonpayable",
      "type": "function"
    },
    {
      "inputs": [],
      "name": "unpause",
      "outputs": [],
      "stateMutability": "nonpayable",
      "type": "function"
    }
  ],
  "bytecode": "0x6115e06040523480156200001257600080fd5b5060405162007b8d38038062007b8d833981016040819052620000359162001a31565b600080546001600160a01b0319163390811782556040518492849283929091907f8be0079c531659141344cd1fd0a4f28419497f9722a3daafe3b4186f6b6457e0908290a3601581511115620000a85760405162461bcd60e51b81526004016200009f9062001bd3565b60405180910390fd5b8051608052620000ba816000620015c6565b5160601b6001600160601b03191660a052620000d8816001620015c6565b5160601b6001600160601b03191660c052620000f6816002620015c6565b5160601b6001600160601b03191660e05262000114816003620015c6565b5160601b6001600160601b0319166101005262000133816004620015c6565b5160601b6001600160601b0319166101205262000152816005620015c6565b5160601b6001600160601b0319166101405262000171816006620015c6565b5160601b6001600160601b0319166101605262000190816007620015c6565b5160601b6001600160601b03191661018052620001af816008620015c6565b5160601b6001600160601b0319166101a052620001ce816009620015c6565b5160601b6001600160601b0319166101c052620001ed81600a620015c6565b5160601b6001600160601b0319166101e0526200020c81600b620015c6565b5160601b6001600160601b031916610200526200022b81600c620015c6565b5160601b6001600160601b031916610220526200024a81600d620015c6565b5160601b6001600160601b031916610240526200026981600e620015c6565b5160601b6001600160601b031916610260526200028881600f620015c6565b5160601b6001600160601b03191661028052620002a7816010620015c6565b5160601b6001600160601b0319166102a052620002c6816011620015c6565b5160601b6001600160601b0319166102c052620002e5816012620015c6565b5160601b6001600160601b0319166102e05262000304816013620015c6565b5160601b6001600160601b0319166103005262000323816014620015c6565b5160601b6001600160601b0319166103205262000342816000620015c6565b6020015160601b6001600160601b0319166103405262000364816001620015c6565b6020015160601b6001600160601b0319166103605262000386816002620015c6565b6020015160601b6001600160601b03191661038052620003a8816003620015c6565b6020015160601b6001600160601b0319166103a052620003ca816004620015c6565b6020015160601b6001600160601b0319166103c052620003ec816005620015c6565b6020015160601b6001600160601b0319166103e0526200040e816006620015c6565b6020015160601b6001600160601b0319166104005262000430816007620015c6565b6020015160601b6001600160601b0319166104205262000452816008620015c6565b6020015160601b6001600160601b0319166104405262000474816009620015c6565b6020015160601b6001600160601b031916610460526200049681600a620015c6565b6020015160601b6001600160601b03191661048052620004b881600b620015c6565b6020015160601b6001600160601b0319166104a052620004da81600c620015c6565b6020015160601b6001600160601b0319166104c052620004fc81600d620015c6565b6020015160601b6001600160601b0319166104e0526200051e81600e620015c6565b6020015160601b6001600160601b031916610500526200054081600f620015c6565b6020015160601b6001600160601b0319166105205262000562816010620015c6565b6020015160601b6001600160601b0319166105405262000584816011620015c6565b6020015160601b6001600160601b03191661056052620005a6816012620015c6565b6020015160601b6001600160601b03191661058052620005c8816013620015c6565b6020015160601b6001600160601b0319166105a052620005ea816014620015c6565b6020015160601b6001600160601b0319166105c0526200060c816000620015c6565b604001516105e05262000621816001620015c6565b604001516106005262000636816002620015c6565b60400151610620526200064b816003620015c6565b604001516106405262000660816004620015c6565b604001516106605262000675816005620015c6565b60400151610680526200068a816006620015c6565b604001516106a0526200069f816007620015c6565b604001516106c052620006b4816008620015c6565b604001516106e052620006c9816009620015c6565b6040015161070052620006de81600a620015c6565b6040015161072052620006f381600b620015c6565b60400151610740526200070881600c620015c6565b60400151610760526200071d81600d620015c6565b60400151610780526200073281600e620015c6565b604001516107a0526200074781600f620015c6565b604001516107c0526200075c816010620015c6565b604001516107e05262000771816011620015c6565b604001516108005262000786816012620015c6565b60400151610820526200079b816013620015c6565b6040015161084052620007b0816014620015c6565b6040015161086052620007c5816000620015c6565b6060015161088052620007da816001620015c6565b606001516108a052620007ef816002620015c6565b606001516108c05262000804816003620015c6565b606001516108e05262000819816004620015c6565b60600151610900526200082e816005620015c6565b606001516109205262000843816006620015c6565b606001516109405262000858816007620015c6565b60600151610960526200086d816008620015c6565b606001516109805262000882816009620015c6565b606001516109a0526200089781600a620015c6565b606001516109c052620008ac81600b620015c6565b606001516109e052620008c181600c620015c6565b60600151610a0052620008d681600d620015c6565b60600151610a2052620008eb81600e620015c6565b60600151610a40526200090081600f620015c6565b60600151610a605262000915816010620015c6565b60600151610a80526200092a816011620015c6565b60600151610aa0526200093f816012620015c6565b60600151610ac05262000954816013620015c6565b60600151610ae05262000969816014620015c6565b60600151610b00526200097e816000620015c6565b6080015160028111156200098e57fe5b610b208160028111156200099e57fe5b60f81b905250620009b1816001620015c6565b608001516002811115620009c157fe5b610b40816002811115620009d157fe5b60f81b905250620009e4816002620015c6565b608001516002811115620009f457fe5b610b6081600281111562000a0457fe5b60f81b90525062000a17816003620015c6565b60800151600281111562000a2757fe5b610b8081600281111562000a3757fe5b60f81b90525062000a4a816004620015c6565b60800151600281111562000a5a57fe5b610ba081600281111562000a6a57fe5b60f81b90525062000a7d816005620015c6565b60800151600281111562000a8d57fe5b610bc081600281111562000a9d57fe5b60f81b90525062000ab0816006620015c6565b60800151600281111562000ac057fe5b610be081600281111562000ad057fe5b60f81b90525062000ae3816007620015c6565b60800151600281111562000af357fe5b610c0081600281111562000b0357fe5b60f81b90525062000b16816008620015c6565b60800151600281111562000b2657fe5b610c2081600281111562000b3657fe5b60f81b90525062000b49816009620015c6565b60800151600281111562000b5957fe5b610c4081600281111562000b6957fe5b60f81b90525062000b7c81600a620015c6565b60800151600281111562000b8c57fe5b610c6081600281111562000b9c57fe5b60f81b90525062000baf81600b620015c6565b60800151600281111562000bbf57fe5b610c8081600281111562000bcf57fe5b60f81b90525062000be281600c620015c6565b60800151600281111562000bf257fe5b610ca081600281111562000c0257fe5b60f81b90525062000c1581600d620015c6565b60800151600281111562000c2557fe5b610cc081600281111562000c3557fe5b60f81b90525062000c4881600e620015c6565b60800151600281111562000c5857fe5b610ce081600281111562000c6857fe5b60f81b90525062000c7b81600f620015c6565b60800151600281111562000c8b57fe5b610d0081600281111562000c9b57fe5b60f81b90525062000cae816010620015c6565b60800151600281111562000cbe57fe5b610d2081600281111562000cce57fe5b60f81b90525062000ce1816011620015c6565b60800151600281111562000cf157fe5b610d4081600281111562000d0157fe5b60f81b90525062000d14816012620015c6565b60800151600281111562000d2457fe5b610d6081600281111562000d3457fe5b60f81b90525062000d47816013620015c6565b60800151600281111562000d5757fe5b610d8081600281111562000d6757fe5b60f81b90525062000d7a816014620015c6565b60800151600281111562000d8a57fe5b610da081600281111562000d9a57fe5b60f81b90525062000dad816000620015c6565b60a00151610dc05262000dc2816001620015c6565b60a00151610de05262000dd7816002620015c6565b60a00151610e005262000dec816003620015c6565b60a00151610e205262000e01816004620015c6565b60a00151610e405262000e16816005620015c6565b60a00151610e605262000e2b816006620015c6565b60a00151610e805262000e40816007620015c6565b60a00151610ea05262000e55816008620015c6565b60a00151610ec05262000e6a816009620015c6565b60a00151610ee05262000e7f81600a620015c6565b60a00151610f005262000e9481600b620015c6565b60a00151610f205262000ea981600c620015c6565b60a00151610f405262000ebe81600d620015c6565b60a00151610f605262000ed381600e620015c6565b60a00151610f805262000ee881600f620015c6565b60a00151610fa05262000efd816010620015c6565b60a00151610fc05262000f12816011620015c6565b60a00151610fe05262000f27816012620015c6565b60a001516110005262000f3c816013620015c6565b60a001516110205262000f51816014620015c6565b60a001516110405262000f66816000620015c6565b60c0015160601b6001600160601b0319166110605262000f88816001620015c6565b60c0015160601b6001600160601b0319166110805262000faa816002620015c6565b60c0015160601b6001600160601b0319166110a05262000fcc816003620015c6565b60c0015160601b6001600160601b0319166110c05262000fee816004620015c6565b60c0015160601b6001600160601b0319166110e05262001010816005620015c6565b60c0015160601b6001600160601b0319166111005262001032816006620015c6565b60c0015160601b6001600160601b0319166111205262001054816007620015c6565b60c0015160601b6001600160601b0319166111405262001076816008620015c6565b60c0015160601b6001600160601b0319166111605262001098816009620015c6565b60c0015160601b6001600160601b03191661118052620010ba81600a620015c6565b60c0015160601b6001600160601b0319166111a052620010dc81600b620015c6565b60c0015160601b6001600160601b0319166111c052620010fe81600c620015c6565b60c0015160601b6001600160601b0319166111e0526200112081600d620015c6565b60c0015160601b6001600160601b031916611200526200114281600e620015c6565b60c0015160601b6001600160601b031916611220526200116481600f620015c6565b60c0015160601b6001600160601b0319166112405262001186816010620015c6565b60c0015160601b6001600160601b03191661126052620011a8816011620015c6565b60c0015160601b6001600160601b03191661128052620011ca816012620015c6565b60c0015160601b6001600160601b0319166112a052620011ec816013620015c6565b60c0015160601b6001600160601b0319166112c0526200120e816014620015c6565b60c0015160601b6001600160601b0319166112e05262001230816000620015c6565b60e00151151560f81b611300526200124a816001620015c6565b60e00151151560f81b6113205262001264816002620015c6565b60e00151151560f81b611340526200127e816003620015c6565b60e00151151560f81b6113605262001298816004620015c6565b60e00151151560f81b61138052620012b2816005620015c6565b60e00151151560f81b6113a052620012cc816006620015c6565b60e00151151560f81b6113c052620012e6816007620015c6565b60e00151151560f81b6113e05262001300816008620015c6565b60e00151151560f81b611400526200131a816009620015c6565b60e00151151560f81b611420526200133481600a620015c6565b60e00151151560f81b611440526200134e81600b620015c6565b60e00151151560f81b611460526200136881600c620015c6565b60e00151151560f81b611480526200138281600d620015c6565b60e00151151560f81b6114a0526200139c81600e620015c6565b60e00151151560f81b6114c052620013b681600f620015c6565b60e00151151560f81b6114e052620013d0816010620015c6565b60e00151151560f81b61150052620013ea816011620015c6565b60e00151151560f81b6115205262001404816012620015c6565b60e00151151560f81b611540526200141e816013620015c6565b60e00151151560f81b6115605262001438816014620015c6565b60e00151151560f81b61158052506115a082905260005b8151811015620015aa576200146362001909565b8282815181106200147057fe5b602002602001015190506000816060015111620014a15760405162461bcd60e51b81526004016200009f9062001ba8565b60c0810151600282608001516002811115620014b957fe5b141562001575576001600160a01b038116620014e95760405162461bcd60e51b81526004016200009f9062001b80565b60408201516000620014fb8462001640565b600083815260366020908152604080832042808255603790935292819020828155600193840185905592909201839055905191925083917fe37d39315e3419c0937360f1ac88f2c52ecf67e3b22b367f82047ddb4591904a91620015659181908690819062001c48565b60405180910390a250506200159f565b6001600160a01b038116156200159f5760405162461bcd60e51b81526004016200009f9062001c1c565b50506001016200144f565b505050505060601b6001600160601b0319166115c05262001cb9565b620015d062001909565b8251821015620015f757828281518110620015e757fe5b602002602001015190506200163a565b506040805161010081018252600080825260208201819052918101829052606081018290526080810182905260a0810182905260c0810182905260e08101919091525b92915050565b60008060006200165f8460c001516200168260201b620030831760201c565b50915091508360e0015115620016795791506200167d9050565b5090505b919050565b600080806200169062001885565b9050836001600160a01b0316635909c0d56040518163ffffffff1660e01b815260040160206040518083038186803b158015620016cc57600080fd5b505afa158015620016e1573d6000803e3d6000fd5b505050506040513d601f19601f8201168201806040525081019062001707919062001b67565b9250836001600160a01b0316635a3d54936040518163ffffffff1660e01b815260040160206040518083038186803b1580156200174357600080fd5b505afa15801562001758573d6000803e3d6000fd5b505050506040513d601f19601f820116820180604052508101906200177e919062001b67565b91506000806000866001600160a01b0316630902f1ac6040518163ffffffff1660e01b815260040160606040518083038186803b158015620017bf57600080fd5b505afa158015620017d4573d6000803e3d6000fd5b505050506040513d601f19601f82011682018060405250810190620017fa919062001b0d565b9250925092508363ffffffff168163ffffffff16146200187b57600081850390508063ffffffff166200183984866200188f60201b620032581760201c565b600001516001600160e01b031602870196508063ffffffff166200186985856200188f60201b620032581760201c565b516001600160e01b0316029590950194505b5050509193909250565b63ffffffff421690565b620018996200194e565b6000826001600160701b031611620018c55760405162461bcd60e51b81526004016200009f9062001bf7565b6040805160208101909152806001600160701b038416600160701b600160e01b03607087901b1681620018f457fe5b046001600160e01b0316815250905092915050565b60408051610100810182526000808252602082018190529181018290526060810182905290608082019081526000602082018190526040820181905260609091015290565b60408051602081019091526000815290565b80516001600160a01b03811681146200163a57600080fd5b805180151581146200163a57600080fd5b60006101008083850312156200199d578182fd5b620019a88162001c63565b915050620019b7838362001960565b8152620019c8836020840162001960565b60208201526040820151604082015260608201516060820152608082015160038110620019f457600080fd5b608082015260a0828101519082015262001a128360c0840162001960565b60c082015262001a268360e0840162001978565b60e082015292915050565b60008060006060848603121562001a46578283fd5b835162001a538162001c8a565b60208581015160408701519295509350906001600160401b038082111562001a79578384fd5b818701915087601f83011262001a8d578384fd5b81518181111562001a9c578485fd5b62001aab848583020162001c63565b8181528481019250838501610100808402860187018c101562001acc578788fd5b8795505b8386101562001afc5762001ae58c8362001989565b855260019590950194938601939081019062001ad0565b505080955050505050509250925092565b60008060006060848603121562001b22578283fd5b835162001b2f8162001ca3565b602085015190935062001b428162001ca3565b604085015190925063ffffffff8116811462001b5c578182fd5b809150509250925092565b60006020828403121562001b79578081fd5b5051919050565b6020808252600e908201526d13505492d15517d254d7d395531360921b604082015260600190565b602080825260119082015270109054d157d553925517d254d7d3955313607a1b604082015260600190565b6020808252600a90820152694d41585f544f4b454e5360b01b604082015260600190565b6020808252600b908201526a4449565f42595f5a45524f60a81b604082015260600190565b60208082526012908201527113505492d15517d254d7d393d517d395531360721b604082015260600190565b93845260208401929092526040830152606082015260800190565b6040518181016001600160401b038111828210171562001c8257600080fd5b604052919050565b6001600160a01b038116811462001ca057600080fd5b50565b6001600160701b038116811462001ca057600080fd5b60805160a05160601c60c05160601c60e05160601c6101005160601c6101205160601c6101405160601c6101605160601c6101805160601c6101a05160601c6101c05160601c6101e05160601c6102005160601c6102205160601c6102405160601c6102605160601c6102805160601c6102a05160601c6102c05160601c6102e05160601c6103005160601c6103205160601c6103405160601c6103605160601c6103805160601c6103a05160601c6103c05160601c6103e05160601c6104005160601c6104205160601c6104405160601c6104605160601c6104805160601c6104a05160601c6104c05160601c6104e05160601c6105005160601c6105205160601c6105405160601c6105605160601c6105805160601c6105a05160601c6105c05160601c6105e05161060051610620516106405161066051610680516106a0516106c0516106e05161070051610720516107405161076051610780516107a0516107c0516107e05161080051610820516108405161086051610880516108a0516108c0516108e05161090051610920516109405161096051610980516109a0516109c0516109e051610a0051610a2051610a4051610a6051610a8051610aa051610ac051610ae051610b0051610b205160f81c610b405160f81c610b605160f81c610b805160f81c610ba05160f81c610bc05160f81c610be05160f81c610c005160f81c610c205160f81c610c405160f81c610c605160f81c610c805160f81c610ca05160f81c610cc05160f81c610ce05160f81c610d005160f81c610d205160f81c610d405160f81c610d605160f81c610d805160f81c610da05160f81c610dc051610de051610e0051610e2051610e4051610e6051610e8051610ea051610ec051610ee051610f0051610f2051610f4051610f6051610f8051610fa051610fc051610fe0516110005161102051611040516110605160601c6110805160601c6110a05160601c6110c05160601c6110e05160601c6111005160601c6111205160601c6111405160601c6111605160601c6111805160601c6111a05160601c6111c05160601c6111e05160601c6112005160601c6112205160601c6112405160601c6112605160601c6112805160601c6112a05160601c6112c05160601c6112e05160601c6113005160f81c6113205160f81c6113405160f81c6113605160f81c6113805160f81c6113a05160f81c6113c05160f81c6113e05160f81c6114005160f81c6114205160f81c6114405160f81c6114605160f81c6114805160f81c6114a05160f81c6114c05160f81c6114e05160f81c6115005160f81c6115205160f81c6115405160f81c6115605160f81c6115805160f81c6115a0516115c05160601c615595620025f860003980612d71525080612f365280614ab1525080612c76525080612b045250806129925250806128205250806126ae52508061253c5250806123ca5250806122585250806120e6525080611f74525080611e02525080611c90525080611b1e5250806119ac52508061183a5250806116c85250806115565250806113e4525080611272525080611100525080610f8e525080612c47525080612ad55250806129635250806127f152508061267f52508061250d52508061239b5250806122295250806120b7525080611f45525080611dd3525080611c61525080611aef52508061197d52508061180b5250806116995250806115275250806113b55250806112435250806110d1525080610f5f525080612c21525080612aaf52508061293d5250806127cb5250806126595250806124e7525080612375525080612203525080612091525080611f1f525080611dad525080611c3b525080611ac95250806119575250806117e552508061167352508061150152508061138f52508061121d5250806110ab525080610f39525080612bf0525080612a7e52508061290c52508061279a5250806126285250806124b65250806123445250806121d2525080612060525080611eee525080611d7c525080611c0a525080611a985250806119265250806117b45250806116425250806114d052508061135e5250806111ec52508061107a525080610f08525080612bca525080612a585250806128e652508061277452508061260252508061249052508061231e5250806121ac52508061203a525080611ec8525080611d56525080611be4525080611a7252508061190052508061178e52508061161c5250806114aa5250806113385250806111c6525080611054525080610ee2525080612ba4528061396d525080612a32528061393d5250806128c0528061390d52508061274e52806138dd5250806125dc52806138ad52508061246a528061387d5250806122f8528061384d525080612186528061381d52508061201452806137ed525080611ea252806137bd525080611d30528061378d525080611bbe528061375d525080611a4c528061372d5250806118da52806136fd52508061176852806136cd5250806115f6528061369d525080611484528061366d525080611312528061363d5250806111a0528061360d52508061102e52806135dd525080610ebc52806135ad525080612b755280614057525080612a0352806140155250806128915280613fd352508061271f5280613f915250806125ad5280613f4f52508061243b5280613f0d5250806122c95280613ecb5250806121575280613e89525080611fe55280613e47525080611e735280613e05525080611d015280613dc3525080611b8f5280613d81525080611a1d5280613d3f5250806118ab5280613cfd5250806117395280613cbb5250806115c75280613c795250806114555280613c375250806112e35280613bf55250806111715280613bb3525080610fff5280613b71525080610e8d5280613b2f525080612b4652806147835250806129d4528061474152508061286252806146ff5250806126f052806146bd52508061257e528061467b52508061240c528061463952508061229a52806145f752508061212852806145b5525080611fb65280614573525080611e445280614531525080611cd252806144ef525080611b6052806144ad5250806119ee528061446b52508061187c528061442952508061170a52806143e752508061159852806143a552508061142652806143635250806112b4528061432152508061114252806142df525080610fd0528061429d525080610e5e528061425b525080610e0e5280612cb252506155956000f3fe608060405234801561001057600080fd5b506004361061021c5760003560e01c80638456cb5911610125578063c8ef8c57116100ad578063e9206d781161007c578063e9206d781461044a578063eaa1c2ca14610452578063f2fde38b14610465578063f86f359314610478578063fc57d4df1461048b5761021c565b8063c8ef8c571461041c578063d1b353b414610385578063e42d25951461042f578063e8315742146104425761021c565b80639f599631116100f45780639f599631146103d3578063b6f8a424146103e6578063ba6ac589146103ee578063c1b5dcb614610401578063c5992e7d146104095761021c565b80638456cb59146103a85780638a003888146103b05780638da5cb5b146103c35780638e499bcf146103cb5761021c565b80634da21942116101a85780635e9a523c116101775780635e9a523c1461035157806360846bc61461036457806369aa3ac614610385578063715018a61461038d5780638373ec01146103955761021c565b80634da21942146102f657806357907ed91461030957806358accb69146103295780635c975abb1461033c5761021c565b80633a152fd3116101ef5780633a152fd3146102935780633bba5b5d146102b35780633f4ba83a146102c8578063485cc955146102d05780634b3218dc146102e35761021c565b8063094ba46b146102215780631a12520414610236578063276c2cba1461025f57806337c0e12d14610272575b600080fd5b61023461022f366004614f2f565b61049e565b005b610249610244366004614e0d565b6106ba565b6040516102569190615387565b60405180910390f35b61024961026d366004614e90565b610706565b610285610280366004614e0d565b610743565b604051610256929190615435565b6102a66102a1366004614e25565b61075c565b6040516102569190615044565b6102bb6107b4565b6040516102569190615025565b6102346107c8565b6102346102de366004614da2565b6107fc565b6102346102f1366004614e0d565b6108c1565b610249610304366004614d6a565b610a2b565b61031c610317366004614e0d565b610a3e565b6040516102569190615415565b610234610337366004614f2f565b610a50565b610344610cb6565b6040516102569190615039565b61031c61035f366004614d6a565b610cc0565b610377610372366004614e0d565b610d08565b6040516102569291906153fb565b61031c610d2e565b610234610d3a565b6102a66103a3366004614e0d565b610dae565b610234610dd2565b6102496103be366004614e0d565b610e04565b6102bb612ca1565b61031c612cb0565b6102496103e1366004614d6a565b612cd4565b6102bb612d6f565b6102346103fc366004614dda565b612d93565b61031c612e6c565b610234610417366004614d6a565b612e79565b61031c61042a366004614e0d565b612efe565b61031c61043d366004614d6a565b612f1c565b61031c612f2f565b61031c612f34565b610285610460366004614e0d565b612f58565b610234610473366004614d6a565b612f71565b61031c610486366004614e50565b61301c565b61031c610499366004614d6a565b613070565b83828260005a60335460405163b1f6126960e01b815291925061010090046001600160a01b03169063b1f61269906104dc908790339060040161541e565b60006040518083038186803b1580156104f457600080fd5b505afa158015610508573d6000803e3d6000fd5b505060335460ff1615915061053a90505760405162461bcd60e51b815260040161053190615099565b60405180910390fd5b8651806105595760405162461bcd60e51b8152600401610531906152f1565b60006105636132d3565b905061056e8161335d565b506000808061057b6133e2565b9150915060005b858110156105ca5760006105ab8e838151811061059b57fe5b6020026020010151878686613472565b60028111156105b657fe5b146105c2576001909301925b600101610582565b50600083116105eb5760405162461bcd60e51b8152600401610531906152a4565b8c7fb04aa4260d41872ddd239757e791254e55b6042c636e250133f79d40e0af445c868560405161061d929190615435565b60405180910390a25050505050600061520861063a5a8490613567565b60335460405163e9cf230960e01b81529290910192506001600160a01b03610100909104169063e9cf23099061067d90889085906001908a908a90600401615443565b600060405180830381600087803b15801561069757600080fd5b505af11580156106ab573d6000803e3d6000fd5b50505050505050505050505050565b6106c2614bbb565b60006106cd836135a9565b905060001981146106e9576106e181610e04565b915050610701565b60405162461bcd60e51b815260040161053190615202565b919050565b61070e614bbb565b61073d826040516020016107229190614feb565b604051602081830303815290604052805190602001206106ba565b92915050565b6036602052600090815260409020805460019091015482565b60008381526034602052604081205481906107819042906001600160801b0316613567565b9050838110156107955760009150506107ad565b828110156107a75760019150506107ad565b60029150505b9392505050565b60335461010090046001600160a01b031681565b6000546001600160a01b031633146107f25760405162461bcd60e51b81526004016105319061517e565b6107fa6139a4565b565b600054600160a81b900460ff16806108175750610817613a0a565b8061082c5750600054600160a01b900460ff16155b6108485760405162461bcd60e51b815260040161053190615256565b600054600160a81b900460ff1615801561087f576000805460ff60a01b1960ff60a81b19909116600160a81b1716600160a01b1790555b61088883612f9b565b60338054610100600160a81b0319166101006001600160a01b0385160217905580156108bc576000805460ff60a81b191690555b505050565b60335460ff16156108e45760405162461bcd60e51b815260040161053190615099565b60005a603354604051635cfff80960e11b815291925061010090046001600160a01b03169063b9fff0129061091f908590339060040161541e565b60006040518083038186803b15801561093757600080fd5b505afa15801561094b573d6000803e3d6000fd5b5050505061095a826001613a10565b610962614c00565b6040518060400160405280336001600160a01b031681526020016000151581525090506060816040516020016109989190615365565b60408051808303601f1901815291905260335490915061010090046001600160a01b031663e9cf2309856152086109d05a8890613567565b016002856040518563ffffffff1660e01b81526004016109f39493929190615487565b600060405180830381600087803b158015610a0d57600080fd5b505af1158015610a21573d6000803e3d6000fd5b5050505050505050565b610a33614bbb565b60006106cd83613b2b565b60356020526000908152604090205481565b60335460ff1615610a735760405162461bcd60e51b815260040161053190615099565b60005a603354604051635cfff80960e11b815291925061010090046001600160a01b03169063b9fff01290610aae908890339060040161541e565b60006040518083038186803b158015610ac657600080fd5b505afa158015610ada573d6000803e3d6000fd5b5050855191505080610afe5760405162461bcd60e51b8152600401610531906152f1565b6000610b086132d3565b9050610b138161335d565b5060008080610b206133e2565b9150915060005b85811015610b60576002610b408b838151811061059b57fe5b6002811115610b4b57fe5b1415610b58576001909301925b600101610b27565b508215610c6557610b728a6000613a10565b60335460405163face263560e01b81526101009091046001600160a01b03169063face263590610ba8908d908790600401615435565b600060405180830381600087803b158015610bc257600080fd5b505af1158015610bd6573d6000803e3d6000fd5b505050506000615208610bea5a8990613567565b60335460405163e9cf230960e01b81529290910192506001600160a01b03610100909104169063e9cf230990610c2d908e9085906001908f908f90600401615443565b600060405180830381600087803b158015610c4757600080fd5b505af1158015610c5b573d6000803e3d6000fd5b5050505050610c70565b610c708a6001613a10565b897f61405027faf4e717e700e17dbef3d0d1f67c1385d3bd5e6bc645dc9890f9dbc08685604051610ca2929190615435565b60405180910390a250505050505050505050565b60335460ff165b90565b6000610cca614bbb565b610cd383610a2b565b90508060600151610cf96c0c9f2c9cd04674edea40000000610cf484614097565b6141bd565b81610d0057fe5b049392505050565b6034602052600090815260409020546001600160801b0380821691600160801b90041682565b670de0b6b3a764000081565b6000546001600160a01b03163314610d645760405162461bcd60e51b81526004016105319061517e565b600080546040516001600160a01b03909116907f8be0079c531659141344cd1fd0a4f28419497f9722a3daafe3b4186f6b6457e0908390a3600080546001600160a01b0319169055565b6000806000610dbb6133e2565b91509150610dca84838361075c565b949350505050565b6000546001600160a01b03163314610dfc5760405162461bcd60e51b81526004016105319061517e565b6107fa6141f7565b610e0c614bbb565b7f00000000000000000000000000000000000000000000000000000000000000008210610e4b5760405162461bcd60e51b815260040161053190615202565b81610fb9576040518061010001604052807f00000000000000000000000000000000000000000000000000000000000000006001600160a01b031681526020017f00000000000000000000000000000000000000000000000000000000000000006001600160a01b031681526020017f000000000000000000000000000000000000000000000000000000000000000081526020017f000000000000000000000000000000000000000000000000000000000000000081526020017f00000000000000000000000000000000000000000000000000000000000000006002811115610f3257fe5b81526020017f000000000000000000000000000000000000000000000000000000000000000081526020017f00000000000000000000000000000000000000000000000000000000000000006001600160a01b031681526020017f000000000000000000000000000000000000000000000000000000000000000015158152509050610701565b816001141561112b576040518061010001604052807f00000000000000000000000000000000000000000000000000000000000000006001600160a01b031681526020017f00000000000000000000000000000000000000000000000000000000000000006001600160a01b031681526020017f000000000000000000000000000000000000000000000000000000000000000081526020017f000000000000000000000000000000000000000000000000000000000000000081526020017f000000000000000000000000000000000000000000000000000000000000000060028111156110a457fe5b81526020017f000000000000000000000000000000000000000000000000000000000000000081526020017f00000000000000000000000000000000000000000000000000000000000000006001600160a01b031681526020017f000000000000000000000000000000000000000000000000000000000000000015158152509050610701565b816002141561129d576040518061010001604052807f00000000000000000000000000000000000000000000000000000000000000006001600160a01b031681526020017f00000000000000000000000000000000000000000000000000000000000000006001600160a01b031681526020017f000000000000000000000000000000000000000000000000000000000000000081526020017f000000000000000000000000000000000000000000000000000000000000000081526020017f0000000000000000000000000000000000000000000000000000000000000000600281111561121657fe5b81526020017f000000000000000000000000000000000000000000000000000000000000000081526020017f00000000000000000000000000000000000000000000000000000000000000006001600160a01b031681526020017f000000000000000000000000000000000000000000000000000000000000000015158152509050610701565b816003141561140f576040518061010001604052807f00000000000000000000000000000000000000000000000000000000000000006001600160a01b031681526020017f00000000000000000000000000000000000000000000000000000000000000006001600160a01b031681526020017f000000000000000000000000000000000000000000000000000000000000000081526020017f000000000000000000000000000000000000000000000000000000000000000081526020017f0000000000000000000000000000000000000000000000000000000000000000600281111561138857fe5b81526020017f000000000000000000000000000000000000000000000000000000000000000081526020017f00000000000000000000000000000000000000000000000000000000000000006001600160a01b031681526020017f000000000000000000000000000000000000000000000000000000000000000015158152509050610701565b8160041415611581576040518061010001604052807f00000000000000000000000000000000000000000000000000000000000000006001600160a01b031681526020017f00000000000000000000000000000000000000000000000000000000000000006001600160a01b031681526020017f000000000000000000000000000000000000000000000000000000000000000081526020017f000000000000000000000000000000000000000000000000000000000000000081526020017f000000000000000000000000000000000000000000000000000000000000000060028111156114fa57fe5b81526020017f000000000000000000000000000000000000000000000000000000000000000081526020017f00000000000000000000000000000000000000000000000000000000000000006001600160a01b031681526020017f000000000000000000000000000000000000000000000000000000000000000015158152509050610701565b81600514156116f3576040518061010001604052807f00000000000000000000000000000000000000000000000000000000000000006001600160a01b031681526020017f00000000000000000000000000000000000000000000000000000000000000006001600160a01b031681526020017f000000000000000000000000000000000000000000000000000000000000000081526020017f000000000000000000000000000000000000000000000000000000000000000081526020017f0000000000000000000000000000000000000000000000000000000000000000600281111561166c57fe5b81526020017f000000000000000000000000000000000000000000000000000000000000000081526020017f00000000000000000000000000000000000000000000000000000000000000006001600160a01b031681526020017f000000000000000000000000000000000000000000000000000000000000000015158152509050610701565b8160061415611865576040518061010001604052807f00000000000000000000000000000000000000000000000000000000000000006001600160a01b031681526020017f00000000000000000000000000000000000000000000000000000000000000006001600160a01b031681526020017f000000000000000000000000000000000000000000000000000000000000000081526020017f000000000000000000000000000000000000000000000000000000000000000081526020017f000000000000000000000000000000000000000000000000000000000000000060028111156117de57fe5b81526020017f000000000000000000000000000000000000000000000000000000000000000081526020017f00000000000000000000000000000000000000000000000000000000000000006001600160a01b031681526020017f000000000000000000000000000000000000000000000000000000000000000015158152509050610701565b81600714156119d7576040518061010001604052807f00000000000000000000000000000000000000000000000000000000000000006001600160a01b031681526020017f00000000000000000000000000000000000000000000000000000000000000006001600160a01b031681526020017f000000000000000000000000000000000000000000000000000000000000000081526020017f000000000000000000000000000000000000000000000000000000000000000081526020017f0000000000000000000000000000000000000000000000000000000000000000600281111561195057fe5b81526020017f000000000000000000000000000000000000000000000000000000000000000081526020017f00000000000000000000000000000000000000000000000000000000000000006001600160a01b031681526020017f000000000000000000000000000000000000000000000000000000000000000015158152509050610701565b8160081415611b49576040518061010001604052807f00000000000000000000000000000000000000000000000000000000000000006001600160a01b031681526020017f00000000000000000000000000000000000000000000000000000000000000006001600160a01b031681526020017f000000000000000000000000000000000000000000000000000000000000000081526020017f000000000000000000000000000000000000000000000000000000000000000081526020017f00000000000000000000000000000000000000000000000000000000000000006002811115611ac257fe5b81526020017f000000000000000000000000000000000000000000000000000000000000000081526020017f00000000000000000000000000000000000000000000000000000000000000006001600160a01b031681526020017f000000000000000000000000000000000000000000000000000000000000000015158152509050610701565b8160091415611cbb576040518061010001604052807f00000000000000000000000000000000000000000000000000000000000000006001600160a01b031681526020017f00000000000000000000000000000000000000000000000000000000000000006001600160a01b031681526020017f000000000000000000000000000000000000000000000000000000000000000081526020017f000000000000000000000000000000000000000000000000000000000000000081526020017f00000000000000000000000000000000000000000000000000000000000000006002811115611c3457fe5b81526020017f000000000000000000000000000000000000000000000000000000000000000081526020017f00000000000000000000000000000000000000000000000000000000000000006001600160a01b031681526020017f000000000000000000000000000000000000000000000000000000000000000015158152509050610701565b81600a1415611e2d576040518061010001604052807f00000000000000000000000000000000000000000000000000000000000000006001600160a01b031681526020017f00000000000000000000000000000000000000000000000000000000000000006001600160a01b031681526020017f000000000000000000000000000000000000000000000000000000000000000081526020017f000000000000000000000000000000000000000000000000000000000000000081526020017f00000000000000000000000000000000000000000000000000000000000000006002811115611da657fe5b81526020017f000000000000000000000000000000000000000000000000000000000000000081526020017f00000000000000000000000000000000000000000000000000000000000000006001600160a01b031681526020017f000000000000000000000000000000000000000000000000000000000000000015158152509050610701565b81600b1415611f9f576040518061010001604052807f00000000000000000000000000000000000000000000000000000000000000006001600160a01b031681526020017f00000000000000000000000000000000000000000000000000000000000000006001600160a01b031681526020017f000000000000000000000000000000000000000000000000000000000000000081526020017f000000000000000000000000000000000000000000000000000000000000000081526020017f00000000000000000000000000000000000000000000000000000000000000006002811115611f1857fe5b81526020017f000000000000000000000000000000000000000000000000000000000000000081526020017f00000000000000000000000000000000000000000000000000000000000000006001600160a01b031681526020017f000000000000000000000000000000000000000000000000000000000000000015158152509050610701565b81600c1415612111576040518061010001604052807f00000000000000000000000000000000000000000000000000000000000000006001600160a01b031681526020017f00000000000000000000000000000000000000000000000000000000000000006001600160a01b031681526020017f000000000000000000000000000000000000000000000000000000000000000081526020017f000000000000000000000000000000000000000000000000000000000000000081526020017f0000000000000000000000000000000000000000000000000000000000000000600281111561208a57fe5b81526020017f000000000000000000000000000000000000000000000000000000000000000081526020017f00000000000000000000000000000000000000000000000000000000000000006001600160a01b031681526020017f000000000000000000000000000000000000000000000000000000000000000015158152509050610701565b81600d1415612283576040518061010001604052807f00000000000000000000000000000000000000000000000000000000000000006001600160a01b031681526020017f00000000000000000000000000000000000000000000000000000000000000006001600160a01b031681526020017f000000000000000000000000000000000000000000000000000000000000000081526020017f000000000000000000000000000000000000000000000000000000000000000081526020017f000000000000000000000000000000000000000000000000000000000000000060028111156121fc57fe5b81526020017f000000000000000000000000000000000000000000000000000000000000000081526020017f00000000000000000000000000000000000000000000000000000000000000006001600160a01b031681526020017f000000000000000000000000000000000000000000000000000000000000000015158152509050610701565b81600e14156123f5576040518061010001604052807f00000000000000000000000000000000000000000000000000000000000000006001600160a01b031681526020017f00000000000000000000000000000000000000000000000000000000000000006001600160a01b031681526020017f000000000000000000000000000000000000000000000000000000000000000081526020017f000000000000000000000000000000000000000000000000000000000000000081526020017f0000000000000000000000000000000000000000000000000000000000000000600281111561236e57fe5b81526020017f000000000000000000000000000000000000000000000000000000000000000081526020017f00000000000000000000000000000000000000000000000000000000000000006001600160a01b031681526020017f000000000000000000000000000000000000000000000000000000000000000015158152509050610701565b81600f1415612567576040518061010001604052807f00000000000000000000000000000000000000000000000000000000000000006001600160a01b031681526020017f00000000000000000000000000000000000000000000000000000000000000006001600160a01b031681526020017f000000000000000000000000000000000000000000000000000000000000000081526020017f000000000000000000000000000000000000000000000000000000000000000081526020017f000000000000000000000000000000000000000000000000000000000000000060028111156124e057fe5b81526020017f000000000000000000000000000000000000000000000000000000000000000081526020017f00000000000000000000000000000000000000000000000000000000000000006001600160a01b031681526020017f000000000000000000000000000000000000000000000000000000000000000015158152509050610701565b81601014156126d9576040518061010001604052807f00000000000000000000000000000000000000000000000000000000000000006001600160a01b031681526020017f00000000000000000000000000000000000000000000000000000000000000006001600160a01b031681526020017f000000000000000000000000000000000000000000000000000000000000000081526020017f000000000000000000000000000000000000000000000000000000000000000081526020017f0000000000000000000000000000000000000000000000000000000000000000600281111561265257fe5b81526020017f000000000000000000000000000000000000000000000000000000000000000081526020017f00000000000000000000000000000000000000000000000000000000000000006001600160a01b031681526020017f000000000000000000000000000000000000000000000000000000000000000015158152509050610701565b816011141561284b576040518061010001604052807f00000000000000000000000000000000000000000000000000000000000000006001600160a01b031681526020017f00000000000000000000000000000000000000000000000000000000000000006001600160a01b031681526020017f000000000000000000000000000000000000000000000000000000000000000081526020017f000000000000000000000000000000000000000000000000000000000000000081526020017f000000000000000000000000000000000000000000000000000000000000000060028111156127c457fe5b81526020017f000000000000000000000000000000000000000000000000000000000000000081526020017f00000000000000000000000000000000000000000000000000000000000000006001600160a01b031681526020017f000000000000000000000000000000000000000000000000000000000000000015158152509050610701565b81601214156129bd576040518061010001604052807f00000000000000000000000000000000000000000000000000000000000000006001600160a01b031681526020017f00000000000000000000000000000000000000000000000000000000000000006001600160a01b031681526020017f000000000000000000000000000000000000000000000000000000000000000081526020017f000000000000000000000000000000000000000000000000000000000000000081526020017f0000000000000000000000000000000000000000000000000000000000000000600281111561293657fe5b81526020017f000000000000000000000000000000000000000000000000000000000000000081526020017f00000000000000000000000000000000000000000000000000000000000000006001600160a01b031681526020017f000000000000000000000000000000000000000000000000000000000000000015158152509050610701565b8160131415612b2f576040518061010001604052807f00000000000000000000000000000000000000000000000000000000000000006001600160a01b031681526020017f00000000000000000000000000000000000000000000000000000000000000006001600160a01b031681526020017f000000000000000000000000000000000000000000000000000000000000000081526020017f000000000000000000000000000000000000000000000000000000000000000081526020017f00000000000000000000000000000000000000000000000000000000000000006002811115612aa857fe5b81526020017f000000000000000000000000000000000000000000000000000000000000000081526020017f00000000000000000000000000000000000000000000000000000000000000006001600160a01b031681526020017f000000000000000000000000000000000000000000000000000000000000000015158152509050610701565b8160141415610701576040518061010001604052807f00000000000000000000000000000000000000000000000000000000000000006001600160a01b031681526020017f00000000000000000000000000000000000000000000000000000000000000006001600160a01b031681526020017f000000000000000000000000000000000000000000000000000000000000000081526020017f000000000000000000000000000000000000000000000000000000000000000081526020017f00000000000000000000000000000000000000000000000000000000000000006002811115612c1a57fe5b81526020017f000000000000000000000000000000000000000000000000000000000000000081526020017f00000000000000000000000000000000000000000000000000000000000000006001600160a01b031681526020017f000000000000000000000000000000000000000000000000000000000000000015158152509050610701565b6000546001600160a01b031690565b7f000000000000000000000000000000000000000000000000000000000000000081565b612cdc614bbb565b6000612ce783614257565b90506000198114612cfb576106e181610e04565b6107ad836001600160a01b0316636f307dc36040518163ffffffff1660e01b815260040160206040518083038186803b158015612d3757600080fd5b505afa158015612d4b573d6000803e3d6000fd5b505050506040513d601f19601f820116820180604052508101906103049190614d86565b7f000000000000000000000000000000000000000000000000000000000000000081565b60335460ff1615612db65760405162461bcd60e51b815260040161053190615099565b805180612dd55760405162461bcd60e51b8152600401610531906152f1565b6000612ddf6132d3565b9050600080612dec6133e2565b9150915060005b84811015612e2357612e1a868281518110612e0a57fe5b6020026020010151858585613472565b50600101612df3565b50336001600160a01b03167f82fb3e667ddfbcb21220df20a7407d7ecf93310ab8731c8767d756d4f0068e1885604051612e5d9190615415565b60405180910390a25050505050565b68056bc75e2d6310000081565b6000546001600160a01b03163314612ea35760405162461bcd60e51b81526004016105319061517e565b60338054610100600160a81b0319166101006001600160a01b038416021790556040517f5a28f58a97415d12a9873ae3120db67fb83f7818f9b21801c0f5f4a919f6b9e490612ef3908390615025565b60405180910390a150565b6000612f08614bbb565b612f11836106ba565b90506107ad81614097565b6000612f26614bbb565b612f1183610a2b565b601581565b7f000000000000000000000000000000000000000000000000000000000000000081565b6037602052600090815260409020805460019091015482565b6000546001600160a01b03163314612f9b5760405162461bcd60e51b81526004016105319061517e565b6001600160a01b038116612fc15760405162461bcd60e51b8152600401610531906150e9565b600080546040516001600160a01b03808516939216917f8be0079c531659141344cd1fd0a4f28419497f9722a3daafe3b4186f6b6457e091a3600080546001600160a01b0319166001600160a01b0392909216919091179055565b6000613026614bbb565b61306584848080601f01602080910402602001604051908101604052809392919081815260200183838082843760009201919091525061070692505050565b9050610dca81614097565b600061307a614bbb565b610cd383612cd4565b60008060006130906147c3565b9050836001600160a01b0316635909c0d56040518163ffffffff1660e01b815260040160206040518083038186803b1580156130cb57600080fd5b505afa1580156130df573d6000803e3d6000fd5b505050506040513d601f19601f820116820180604052508101906131039190614f17565b9250836001600160a01b0316635a3d54936040518163ffffffff1660e01b815260040160206040518083038186803b15801561313e57600080fd5b505afa158015613152573d6000803e3d6000fd5b505050506040513d601f19601f820116820180604052508101906131769190614f17565b91506000806000866001600160a01b0316630902f1ac6040518163ffffffff1660e01b815260040160606040518083038186803b1580156131b657600080fd5b505afa1580156131ca573d6000803e3d6000fd5b505050506040513d601f19601f820116820180604052508101906131ee9190614ec3565b9250925092508363ffffffff168163ffffffff161461324e5780840363ffffffff811661321b8486613258565b516001600160e01b031602969096019563ffffffff811661323c8585613258565b516001600160e01b0316029590950194505b5050509193909250565b613260614c17565b6000826001600160701b0316116132895760405162461bcd60e51b81526004016105319061531a565b6040805160208101909152806001600160701b0384166dffffffffffffffffffffffffffff60701b607087901b16816132be57fe5b046001600160e01b0316815250905092915050565b6000806040516020016132e590615016565b60408051601f1981840301815291905280516020909101209050600061330a82610dae565b600281111561331557fe5b141561334157600090815260346020526040902054600160801b90046001600160801b03169050610cbd565b600061334b6147cd565b90506133578282614813565b91505090565b60008060405160200161336f90615007565b60408051601f1981840301815291905280516020909101209050600061339482610dae565b600281111561339f57fe5b14156133cb57600090815260346020526040902054600160801b90046001600160801b03169050610701565b60006133d684614895565b90506107ad8282614813565b603354604051635316033760e11b815260009182916101009091046001600160a01b03169063a62c066e9061341b903090600401615025565b604080518083038186803b15801561343257600080fd5b505afa158015613446573d6000803e3d6000fd5b505050506040513d601f19601f8201168201806040525081019061346a9190614f9c565b915091509091565b600061347c614bbb565b61348586610706565b905060028160800151600281111561349957fe5b146134b65760405162461bcd60e51b8152600401610531906151dc565b6000866040516020016134c99190614feb565b60405160208183030381529060405280519060200120905060006134ee82878761075c565b905060008160028111156134fe57fe5b141561350e579250610dca915050565b600060405160200161351f90615016565b60405160208183030381529060405280519060200120831415613543575086613551565b61354e89858a6148ca565b90505b61355b8382614813565b50979650505050505050565b60006107ad83836040518060400160405280601e81526020017f536166654d6174683a207375627472616374696f6e206f766572666c6f770000815250614a09565b60007f00000000000000000000000000000000000000000000000000000000000000008214156135db57506000610701565b7f000000000000000000000000000000000000000000000000000000000000000082141561360b57506001610701565b7f000000000000000000000000000000000000000000000000000000000000000082141561363b57506002610701565b7f000000000000000000000000000000000000000000000000000000000000000082141561366b57506003610701565b7f000000000000000000000000000000000000000000000000000000000000000082141561369b57506004610701565b7f00000000000000000000000000000000000000000000000000000000000000008214156136cb57506005610701565b7f00000000000000000000000000000000000000000000000000000000000000008214156136fb57506006610701565b7f000000000000000000000000000000000000000000000000000000000000000082141561372b57506007610701565b7f000000000000000000000000000000000000000000000000000000000000000082141561375b57506008610701565b7f000000000000000000000000000000000000000000000000000000000000000082141561378b57506009610701565b7f00000000000000000000000000000000000000000000000000000000000000008214156137bb5750600a610701565b7f00000000000000000000000000000000000000000000000000000000000000008214156137eb5750600b610701565b7f000000000000000000000000000000000000000000000000000000000000000082141561381b5750600c610701565b7f000000000000000000000000000000000000000000000000000000000000000082141561384b5750600d610701565b7f000000000000000000000000000000000000000000000000000000000000000082141561387b5750600e610701565b7f00000000000000000000000000000000000000000000000000000000000000008214156138ab5750600f610701565b7f00000000000000000000000000000000000000000000000000000000000000008214156138db57506010610701565b7f000000000000000000000000000000000000000000000000000000000000000082141561390b57506011610701565b7f000000000000000000000000000000000000000000000000000000000000000082141561393b57506012610701565b7f000000000000000000000000000000000000000000000000000000000000000082141561396b57506013610701565b7f000000000000000000000000000000000000000000000000000000000000000082141561399b57506014610701565b50600019919050565b60335460ff166139c65760405162461bcd60e51b8152600401610531906152cd565b6033805460ff191690556040517f5db9ee0a495bf2e6ff9c91a7834c1ba4fdd244a5e8aa4e537bd38aeae4b073aa90613a00903390615025565b60405180910390a1565b303b1590565b6000828152603560205260409020548115613ad8576000613a314283613567565b6033546040516364f6f4d360e11b815291925061010090046001600160a01b03169063c9ede9a690613a67903090600401615025565b60206040518083038186803b158015613a7f57600080fd5b505afa158015613a93573d6000803e3d6000fd5b505050506040513d601f19601f82011682018060405250810190613ab79190614f17565b811015613ad65760405162461bcd60e51b8152600401610531906151a5565b505b600083815260356020526040908190204290819055905184917f81f6ad25ea9b9c6225cb44dd6b5938f33ebef46d9f97e90864f6b8512f80cb4f91613b1e918591615435565b60405180910390a2505050565b60007f00000000000000000000000000000000000000000000000000000000000000006001600160a01b0316826001600160a01b03161415613b6f57506000610701565b7f00000000000000000000000000000000000000000000000000000000000000006001600160a01b0316826001600160a01b03161415613bb157506001610701565b7f00000000000000000000000000000000000000000000000000000000000000006001600160a01b0316826001600160a01b03161415613bf357506002610701565b7f00000000000000000000000000000000000000000000000000000000000000006001600160a01b0316826001600160a01b03161415613c3557506003610701565b7f00000000000000000000000000000000000000000000000000000000000000006001600160a01b0316826001600160a01b03161415613c7757506004610701565b7f00000000000000000000000000000000000000000000000000000000000000006001600160a01b0316826001600160a01b03161415613cb957506005610701565b7f00000000000000000000000000000000000000000000000000000000000000006001600160a01b0316826001600160a01b03161415613cfb57506006610701565b7f00000000000000000000000000000000000000000000000000000000000000006001600160a01b0316826001600160a01b03161415613d3d57506007610701565b7f00000000000000000000000000000000000000000000000000000000000000006001600160a01b0316826001600160a01b03161415613d7f57506008610701565b7f00000000000000000000000000000000000000000000000000000000000000006001600160a01b0316826001600160a01b03161415613dc157506009610701565b7f00000000000000000000000000000000000000000000000000000000000000006001600160a01b0316826001600160a01b03161415613e035750600a610701565b7f00000000000000000000000000000000000000000000000000000000000000006001600160a01b0316826001600160a01b03161415613e455750600b610701565b7f00000000000000000000000000000000000000000000000000000000000000006001600160a01b0316826001600160a01b03161415613e875750600c610701565b7f00000000000000000000000000000000000000000000000000000000000000006001600160a01b0316826001600160a01b03161415613ec95750600d610701565b7f00000000000000000000000000000000000000000000000000000000000000006001600160a01b0316826001600160a01b03161415613f0b5750600e610701565b7f00000000000000000000000000000000000000000000000000000000000000006001600160a01b0316826001600160a01b03161415613f4d5750600f610701565b7f00000000000000000000000000000000000000000000000000000000000000006001600160a01b0316826001600160a01b03161415613f8f57506010610701565b7f00000000000000000000000000000000000000000000000000000000000000006001600160a01b0316826001600160a01b03161415613fd157506011610701565b7f00000000000000000000000000000000000000000000000000000000000000006001600160a01b0316826001600160a01b0316141561401357506012610701565b7f00000000000000000000000000000000000000000000000000000000000000006001600160a01b0316826001600160a01b0316141561405557506013610701565b7f00000000000000000000000000000000000000000000000000000000000000006001600160a01b0316826001600160a01b0316141561399b57506014610701565b60006002826080015160028111156140ab57fe5b14156140d95750604081810151600090815260346020522054600160801b90046001600160801b0316610701565b6001826080015160028111156140eb57fe5b14156140fc575060a0810151610701565b60008260800151600281111561410e57fe5b14156141a55760006034600060405160200161412990615016565b60408051808303601f1901815291815281516020928301208352908201929092520160002054600160801b90046001600160801b031690508061417e5760405162461bcd60e51b81526004016105319061522b565b670de0b6b3a7640000614195828560a001516141bd565b8161419c57fe5b04915050610701565b60405162461bcd60e51b8152600401610531906150b9565b6000826141cc5750600061073d565b828202828482816141d957fe5b04146107ad5760405162461bcd60e51b81526004016105319061533f565b60335460ff161561421a5760405162461bcd60e51b815260040161053190615099565b6033805460ff191660011790556040517f62e78cea01bee320cd4e420270b5ea74000d11b0c9f74754ebdbfc544b05a25890613a00903390615025565b60007f00000000000000000000000000000000000000000000000000000000000000006001600160a01b0316826001600160a01b0316141561429b57506000610701565b7f00000000000000000000000000000000000000000000000000000000000000006001600160a01b0316826001600160a01b031614156142dd57506001610701565b7f00000000000000000000000000000000000000000000000000000000000000006001600160a01b0316826001600160a01b0316141561431f57506002610701565b7f00000000000000000000000000000000000000000000000000000000000000006001600160a01b0316826001600160a01b0316141561436157506003610701565b7f00000000000000000000000000000000000000000000000000000000000000006001600160a01b0316826001600160a01b031614156143a357506004610701565b7f00000000000000000000000000000000000000000000000000000000000000006001600160a01b0316826001600160a01b031614156143e557506005610701565b7f00000000000000000000000000000000000000000000000000000000000000006001600160a01b0316826001600160a01b0316141561442757506006610701565b7f00000000000000000000000000000000000000000000000000000000000000006001600160a01b0316826001600160a01b0316141561446957506007610701565b7f00000000000000000000000000000000000000000000000000000000000000006001600160a01b0316826001600160a01b031614156144ab57506008610701565b7f00000000000000000000000000000000000000000000000000000000000000006001600160a01b0316826001600160a01b031614156144ed57506009610701565b7f00000000000000000000000000000000000000000000000000000000000000006001600160a01b0316826001600160a01b0316141561452f5750600a610701565b7f00000000000000000000000000000000000000000000000000000000000000006001600160a01b0316826001600160a01b031614156145715750600b610701565b7f00000000000000000000000000000000000000000000000000000000000000006001600160a01b0316826001600160a01b031614156145b35750600c610701565b7f00000000000000000000000000000000000000000000000000000000000000006001600160a01b0316826001600160a01b031614156145f55750600d610701565b7f00000000000000000000000000000000000000000000000000000000000000006001600160a01b0316826001600160a01b031614156146375750600e610701565b7f00000000000000000000000000000000000000000000000000000000000000006001600160a01b0316826001600160a01b031614156146795750600f610701565b7f00000000000000000000000000000000000000000000000000000000000000006001600160a01b0316826001600160a01b031614156146bb57506010610701565b7f00000000000000000000000000000000000000000000000000000000000000006001600160a01b0316826001600160a01b031614156146fd57506011610701565b7f00000000000000000000000000000000000000000000000000000000000000006001600160a01b0316826001600160a01b0316141561473f57506012610701565b7f00000000000000000000000000000000000000000000000000000000000000006001600160a01b0316826001600160a01b0316141561478157506013610701565b7f00000000000000000000000000000000000000000000000000000000000000006001600160a01b0316826001600160a01b0316141561399b57506014610701565b63ffffffff421690565b600061480e6040518060400160405280600381526020016208aa8960eb1b81525061480060405160200161072290615016565b670de0b6b3a76400006148ca565b905090565b604051806040016040528061482742614a35565b6001600160801b0316815260200161483e83614a35565b6001600160801b0390811690915260009384526034602090815260409094208251815493909501518216600160801b029482166fffffffffffffffffffffffffffffffff1990931692909217169290921790915550565b600061073d6040518060400160405280600381526020016204356560ec1b8152506148c860405160200161072290615007565b845b6000806000806148d986614a5e565b9250925092508042116148fe5760405162461bcd60e51b81526004016105319061515b565b4281900361490a614c17565b6040518060200160405280838688038161492057fe5b046001600160e01b03168152509050600061493a82614b71565b90506000614948828a6141bd565b905060008a60e001511561496b578a60600151828161496357fe5b049050614996565b670de0b6b3a764000080614983848e606001516141bd565b8161498a57fe5b048161499257fe5b0490505b8b6040516020016149a79190614feb565b604051602081830303815290604052805190602001207fce41fe9ec958f339dc607b2f51cfbd3586d3c88f253619eb0bc061c8541c0ef88d8389426040516149f2949392919061506a565b60405180910390a29b9a5050505050505050505050565b60008184841115614a2d5760405162461bcd60e51b81526004016105319190615057565b505050900390565b6000600160801b8210614a5a5760405162461bcd60e51b815260040161053190615114565b5090565b600080600080846040015190506000614a7686614b89565b9050614a80614c29565b50600082815260376020908152604091829020825180840190935280548084526001909101549183019190915242037f00000000000000000000000000000000000000000000000000000000000000008110614b4c578151600085815260366020908152604080832093845581860180516001958601556037909252918290204280825593018690558a82015185519151925190937fe37d39315e3419c0937360f1ac88f2c52ecf67e3b22b367f82047ddb4591904a93614b43939289906154b6565b60405180910390a25b5050600091825260366020526040909120600181015490549196909550909350915050565b516612725dd1d243ab6001600160e01b039091160490565b6000806000614b9b8460c00151613083565b50915091508360e0015115614bb35791506107019050565b509050610701565b60408051610100810182526000808252602082018190529181018290526060810182905290608082019081526000602082018190526040820181905260609091015290565b604080518082019091526000808252602082015290565b60408051602081019091526000815290565b604051806040016040528060008152602001600081525090565b600082601f830112614c53578081fd5b813567ffffffffffffffff811115614c69578182fd5b6020614c7881828402016154d1565b828152925080830184820160005b84811015614caf57614c9d888584358a0101614d01565b83529183019190830190600101614c86565b505050505092915050565b60008083601f840112614ccb578182fd5b50813567ffffffffffffffff811115614ce2578182fd5b602083019150836020828501011115614cfa57600080fd5b9250929050565b600082601f830112614d11578081fd5b813567ffffffffffffffff811115614d27578182fd5b614d3a601f8201601f19166020016154d1565b9150808252836020828501011115614d5157600080fd5b8060208401602084013760009082016020015292915050565b600060208284031215614d7b578081fd5b81356107ad81615535565b600060208284031215614d97578081fd5b81516107ad81615535565b60008060408385031215614db4578081fd5b8235614dbf81615535565b91506020830135614dcf81615535565b809150509250929050565b600060208284031215614deb578081fd5b813567ffffffffffffffff811115614e01578182fd5b610dca84828501614c43565b600060208284031215614e1e578081fd5b5035919050565b600080600060608486031215614e39578081fd5b505081359360208301359350604090920135919050565b60008060208385031215614e62578182fd5b823567ffffffffffffffff811115614e78578283fd5b614e8485828601614cba565b90969095509350505050565b600060208284031215614ea1578081fd5b813567ffffffffffffffff811115614eb7578182fd5b610dca84828501614d01565b600080600060608486031215614ed7578283fd5b8351614ee28161554a565b6020850151909350614ef38161554a565b604085015190925063ffffffff81168114614f0c578182fd5b809150509250925092565b600060208284031215614f28578081fd5b5051919050565b60008060008060608587031215614f44578081fd5b84359350602085013567ffffffffffffffff80821115614f62578283fd5b614f6e88838901614c43565b94506040870135915080821115614f83578283fd5b50614f9087828801614cba565b95989497509550505050565b60008060408385031215614fae578182fd5b505080516020909101519092909150565b60008151808452614fd78160208601602086016154f8565b601f01601f19169290920160200192915050565b60008251614ffd8184602087016154f8565b9190910192915050565b6204356560ec1b815260030190565b6208aa8960eb1b815260030190565b6001600160a01b0391909116815260200190565b901515815260200190565b6020810161505183615528565b91905290565b6000602082526107ad6020830184614fbf565b60006080825261507d6080830187614fbf565b6020830195909552506040810192909252606090910152919050565b60208082526006908201526514105554d15160d21b604082015260600190565b602080825260169082015275554e535550504f525445445f50524943455f4341534560501b604082015260600190565b602080825260119082015270139155d7d3d5d3915497d254d7d3955313607a1b604082015260600190565b60208082526027908201527f53616665436173743a2076616c756520646f65736e27742066697420696e20316040820152663238206269747360c81b606082015260800190565b602080825260099082015268544f4f5f4541524c5960b81b604082015260600190565b6020808252600d908201526c2727aa2faa2422afa7aba722a960991b604082015260600190565b60208082526018908201527f42454c4f575f4845415254424541545f494e54455256414c0000000000000000604082015260600190565b6020808252600c908201526b2727aa2fa922a827a92a22a960a11b604082015260600190565b6020808252600f908201526e1513d2d15397d393d517d193d55391608a1b604082015260600190565b60208082526011908201527011551217d4149250d157d393d517d4d155607a1b604082015260600190565b6020808252602e908201527f436f6e747261637420696e7374616e63652068617320616c726561647920626560408201526d195b881a5b9a5d1a585b1a5e995960921b606082015260800190565b6020808252600f908201526e1393d512125391d7d5541110551151608a1b604082015260600190565b6020808252600a90820152691393d517d4105554d15160b21b604082015260600190565b6020808252600f908201526e4d495353494e475f53594d424f4c5360881b604082015260600190565b6020808252600b908201526a4449565f42595f5a45524f60a81b604082015260600190565b6020808252600c908201526b4d554c5f4f564552464c4f5760a01b604082015260600190565b81516001600160a01b0316815260209182015115159181019190915260400190565b81516001600160a01b03908116825260208084015182169083015260408084015190830152606080840151908301526080830151610100830191906153cb81615528565b8060808501525060a084015160a08401528060c08501511660c08401525060e0830151151560e083015292915050565b6001600160801b0392831681529116602082015260400190565b90815260200190565b9182526001600160a01b0316602082015260400190565b918252602082015260400190565b600086825285602083015284604083015260806060830152826080830152828460a084013781830160a090810191909152601f909201601f19160101949350505050565b6000858252846020830152836040830152608060608301526154ac6080830184614fbf565b9695505050505050565b93845260208401929092526040830152606082015260800190565b60405181810167ffffffffffffffff811182821017156154f057600080fd5b604052919050565b60005b838110156155135781810151838201526020016154fb565b83811115615522576000848401525b50505050565b6003811061553257fe5b50565b6001600160a01b038116811461553257600080fd5b6001600160701b038116811461553257600080fdfea264697066735822122075ecb7bf5b8660d6c30cf411888e8e31a81401fc820eb6f40ed0000d560309e364736f6c634300060c0033",
  "linkReferences": {},
  "deployedLinkReferences": {}
}